:020000040800F2
:1000000000000220A52E0008B92C0008C12C000811
:10001000C92C0008D12C0008D92C000800000000D1
:10002000000000000000000000000000E12C0008BB
:10003000EF2C000800000000FD2C00080D2D00082A
:10004000F52E0008F52E0008F52E0008F52E000804
:10005000F52E0008F52E00082D2D0008F52E0008BD
:10006000F52E0008F52E0008F52E0008F52E0008E4
:10007000F52E0008F52E0008F52E0008F52E0008D4
:10008000F52E0008F52E0008F52E0008F52E0008C4
:100090003D2D0008F52E0008F52E0008F52E00086D
:1000A000F52E0008F52E0008F52E0008F52E0008A4
:1000B000F52E0008F52E0008F52E0008F52E000894
:1000C000F52E0008F52E0008F52E0008F52E000884
:1000D000F52E0008F52E0008F52E0008ED2D00087D
:1000E000F52E0008F52E0008F52E0008F52E000864
:1000F000F52E0008F52E0008F52E0008F52E000854
:10010000F52E0008F52E0008F52E0008F52E000843
:10011000F52E0008F52E0008F52E0008F52E000833
:10012000012E0008F52E0008F52E0008F52E000817
:10013000F52E00080000000000000000F52E000869
:10014000952D0008F52E0008F52E0008F52E000864
:10015000F52E0008F52E0008F52E0008F52E0008F3
:10016000F52E0008F52E0008F52E0008F52E0008E3
:10017000F52E0008F52E0008000000000000000029
:08018000F52E0008F52E000821
:1001900010B5054C237833B9044B13B10448AFF3C1
:1001A00000800123237010BD6800002000000000C3
:1001B000D47A000808B5034B1BB103490348AFF3D9
:1001C000008008BD000000006C000020D47A000808
:1001D00001F0FF01102A2BDB10F0070F08D010F8F8
:1001E000013B013A8B422DD010F0070F42B3F6D1FC
:1001F000F0B441EA012141EA014122F007047FF015
:1002000000070023F0E80256083C85EA010586EA6B
:10021000010685FA47F5A3FA87F586FA47F6A5FAA7
:1002200087F68EB9EED1F0BC01F0FF0102F00702B3
:1002300032B110F8013B013A83EA010313B1F8D15E
:100240000020704701387047002D06BF354603383F
:10025000073815F0010F07D1013015F4807F02BF78
:10026000013015F4C03F0130F0BC0138704700BFC9
:1002700053B94AB9002908BF00281CBF4FF0FF310D
:100280004FF0FF3000F088B9ADF1080C6DE904CEF5
:1002900000F006F8DDF804E0DDE9022304B0704761
:1002A0002DE9F047089D0F4604468C46002B48D1A7
:1002B0008A42164661D9B2FA82F34BB1C3F12002E9
:1002C00001FA03FC20FA02F29E4042EA0C0C9C4028
:1002D0004FEA164EB7B2BCFBFEF1220C0EFB11CC5E
:1002E00042EA0C4201FB07F0904209D9B21801F131
:1002F000FF3C80F0EE80904240F2EB8002393244C5
:10030000121AA4B2B2FBFEF00EFB102244EA024421
:1003100000FB07F7A74209D9341900F1FF3280F03A
:10032000DA80A74240F2D7803444023840EA0140E4
:10033000E41B00211DB1DC400023C5E90043BDE8FA
:10034000F0878B4206D90DB1C5E9000100210846AE
:10035000BDE8F087B3FA83F1002948D1BB4202D34C
:10036000824200F20781841A67EB0302012094465F
:10037000002DE4D0C5E9004CE1E7002A00F09280AE
:10038000B2FA82F3002B40F0A8808A1A4FEA164E88
:100390001FFA86FC0121200CB2FBFEF70EFB172290
:1003A00040EA02420CFB07F0904207D9B21807F16D
:1003B000FF3802D2904200F2E2804746121AA4B2FD
:1003C000B2FBFEF00EFB102244EA02440CFB00FCE0
:1003D000A44507D9341900F1FF3202D2A44500F236
:1003E000CB801046A4EB0C0440EA0740A2E7C1F121
:1003F00020068B4022FA06FC4CEA030C07FA01F4B3
:1004000020FA06F3F7404FEA1C49234300FA01F8AB
:100410001FFA8CFEB7FBF9F01C0C09FB107744EABD
:10042000074400FB0EF7A74202FA01F20AD91CEBBF
:10043000040400F1FF3A80F09B80A74240F29880CC
:1004400002386444E41B9FB2B4FBF9F309FB134484
:1004500047EA044403FB0EFEA64509D91CEB04043D
:1004600003F1FF3780F08280A6457FD9023B6444C8
:1004700043EA0040A4EB0E04A0FB02E7BC42734633
:10048000B94663D360D05DB1B8EB030264EB0904F5
:1004900004FA06F622FA01F31E43CC40C5E90064D3
:1004A00000214CE76208480842EAC1710B0C43EA9C
:1004B00000438AB242EA0342B3FBF6F1E407B446D2
:1004C0003746B6461F23B0FBF6F0D21B41EA004187
:1004D00061E7614614E7104628E7C3F1200120FADE
:1004E00001F29E4027FA01F19F403A434FEA164E2F
:1004F0001FFA86FCB1FBFEF70EFB1710110C41EA48
:10050000004107FB0CF8884504FA03F43AD9711846
:1005100007F1FF3001D288451FD8A1EB0801B1FBDC
:10052000FEF808FB0CF70EFB181192B242EA0142EA
:10053000BA422FD2B21808F1FF31C6D2BA42C4D2A1
:10054000A8F102013244C0E7F0459CD2BEEB0203A1
:1005500067EB0C070138B94695E7A6EB080841445C
:10056000B81EB1FBFEF808FB0CF7DCE73B467FE763
:10057000504667E70846FBE63444023832E7023F5C
:1005800032441BE7A1EB08013846B1FBFEF808FB3B
:100590000CF7C8E7414698E7704700BF80B485B0C4
:1005A00000AF78600B46FB70FF23FB730023BB7327
:1005B00022E0BB7B7A6813441A78FB7B5340FB73C1
:1005C00000237B7312E097F90F30002B08DA97F9BC
:1005D0000F305B005BB283F01D035BB2FB7302E084
:1005E000FB7B5B00FB737B7B01337B737B7B072B8C
:1005F000E9D9BB7B0133BB73BA7BFB789A42D8D372
:10060000FB7BDB43DBB218461437BD465DF8047B49
:100610007047000080B500AF1E4BA2221A601D4B30
:1006200000229A601B4B0022DA601A4B08221A61E2
:10063000184B00221A75184B12221A60164B002212
:100640009A60154B0022DA60134B08221A61124B94
:1006500000221A75114B00221A70114B00221A60E9
:10066000082200210F4806F0B6FD082200210E489E
:1006700006F0B1FD082200210C4806F0ACFD4FF455
:10068000C67200210A4806F0A6FD0A4B00221A7025
:1006900000BF80BD140200202C0200204402002074
:1006A000480200204C020020540200205C0200207E
:1006B000840000201002002080B584B000AF07F154
:1006C000080300221A605A60294B1B78002B08D1BE
:1006D000284B1B780133DBB203F00703DAB2254B5A
:1006E0001A70234B1B7803F00103DAB2214B1B78FD
:1006F0001344DBB22033DBB23B721D4B1B785B082B
:10070000DBB203F00303DBB23033DBB27B720023D6
:10071000BB720023FB7200233B7300237B73002317
:10072000BB73134B1B7803F00F03DBB2FB73104B4F
:100730001B780133DBB203F00F03DAB20C4B1A70F3
:100740000D4B1A4607F1080393E8030082E8030003
:100750000A4B1B680A4A13603B1D07F1080209494E
:10076000094803F0DCFA00BF1037BD4680BD00BF6A
:10077000440200206E0200205402002014190020C0
:1007800064020020140200201808002080B500AF89
:10079000134B1B78DBB2002B20D0124B1968124B85
:1007A000A3FB01231A0913469B0013449B00CA1A9A
:1007B000002A01D1FFF780FF0A4B1A680B4BA3FBFD
:1007C00002131B09322101FB03F3D31A002B06D1BC
:1007D00000F026F8064B01221A7000E000BF80BD31
:1007E0006C02002014190020CDCCCCCC1F85EB511D
:1007F0006D02002080B400AF024B1846BD465DF884
:10080000047B70474C02002080B400AF034B1B6890
:100810009BB21846BD465DF8047B70472C02002051
:1008200080B582B000AF0A4B1B680A4A136000F023
:10083000C5F803461A46084B1A603B1D074A06498D
:10084000074803F06CFA00BF0837BD4680BD00BF03
:1008500014190020680200202C0200204C02002005
:10086000A807002080B582B000AF78607B68002BBD
:1008700035D01D4B7A681068516803C31B4B1B6849
:100880001B4A13607B681A781A4B1A707B68013315
:100890001A78184B5A707B681A787B6801331B787A
:1008A0001344DAB2134B9A70124B0022DA70114BD8
:1008B00000221A710F4B00225A7106210D48FFF7D2
:1008C0006DFE03461A460B4B9A710A4B0022DA71F1
:1008D000094B084A92E8030083E8030000E000BFE8
:1008E0000837BD4680BD00BF540200201419002007
:1008F000640200204C0200205C02002080B584B01D
:1009000000AF78607B68002B24D07B681A787B6806
:1009100001331B781344FB7306217868FFF73EFE12
:100920000346BB737B6802331B78FA7B9A420BD178
:100930007B6806331B78BA7B9A4205D101221021CD
:10094000064804F09FFE06E000221021034804F050
:1009500099FE00E000BF1037BD4680BD0008024090
:1009600080B500AF0F4B12221A800F4B12221A8053
:100970000E4B00221A604FF4807200210C4806F0E2
:100980002AFC4FF4807200210A4806F024FC4FF440
:1009900080720021084806F01EFC00F019FB00BF21
:1009A00080BD00BF00000020020000207005002074
:1009B00070020020700300207004002080B400AF9B
:1009C000034B1B881846BD465DF8047B704700BF8B
:1009D0000000002080B483B000AF0346FB80044ACF
:1009E000FB88138000BF0C37BD465DF8047B704761
:1009F0000200002080B400AF044B1A88044B1A8018
:100A000000BFBD465DF8047B704700BF02000020B8
:100A10000000002080B584B000AF78600B467B807A
:100A20000023FB81FB895A1CFA811A462A4B0F21AD
:100A30009954FB895A1CFA811A46274BFF21995475
:100A4000FB895A1CFA811A46234BF0219954002342
:100A5000BB810CE0BB897A681A44FB89591CF98177
:100A6000194612781C4B5A54BB890133BB81BA8991
:100A70007B889A4202D2FB89F92BEBD9FB895A1C5D
:100A8000FA811A46144BF0219954FB895A1CFA81B9
:100A90001A46114B00219954FB895A1CFA811A46B7
:100AA0000D4B0F219954FB895A1CFA811A460A4BA7
:100AB0000D219954FB895A1CFA811A46064B0A21CA
:100AC0009954FA8964230449044805F001FB00BFE6
:100AD0001037BD4680BD00BF70040020D007002045
:100AE00080B58EB000AFF860B9607A607B8007F1A6
:100AF000140300221A605A60BB68FB6100233B624A
:100B000000237B620023BB620823FB62002387F87B
:100B100030307B88DBB23B75002387F8373010E03C
:100B200097F837307A681A4497F8373001331278DB
:100B300038333B4403F8242C97F83730013387F8D7
:100B4000373097F837309BB27A889A4203D997F8B2
:100B50003730062BE4D97B88DBB2013387F8363097
:100B60000BE097F8363038333B44552203F8242CF9
:100B700097F83630013387F8363097F83630072B40
:100B8000EFD9F86803F0E0F90346002B03D1072101
:100B9000F86803F094F907F1100307F1140207F164
:100BA0001C01F86803F0BBF800BF3837BD4680BDB4
:100BB00080B483B000AF78600B46FB7000BF0C3789
:100BC000BD465DF8047B704780B483B000AF7860A9
:100BD0000B46FB7000BF0C37BD465DF8047B7047C9
:100BE00080B586B000AF854B1B889BB2062B40F2C8
:100BF000FC804FF6FF73FB820023BB8219E0BB8AA7
:100C00007F4AD35CDBB20F2B10D1BB8A01337C4A05
:100C1000D35CDBB2FF2B09D1BB8A0233784AD35CA9
:100C2000DBB2F02B02D1BB8AFB8209E0BB8A013325
:100C3000BB82BB8A0233714A128892B29342DEDBD6
:100C4000B7F91630002B0BDA6C4B1B889BB240F6C1
:100C5000B832934240F2CB80684B00221A80C6E043
:100C60004FF6FF737B82FB8A03333B8219E03B8A9A
:100C7000634AD35CDBB2F02B10D13B8A0133604A6C
:100C8000D35CDBB2002B09D13B8A02335C4AD35CD4
:100C9000DBB20F2B02D13B8A7B8209E03B8A013316
:100CA0003B823B8A0233554A128892B29342DEDB82
:100CB000B7F91230002BC0F29C80FB8A0333FB8112
:100CC0007A8AFB89D31ABB81BB89002B00F0818013
:100CD000BB89FF2B7DD80023BB8072B600BFFB8988
:100CE000474A1344BA891946464806F0BBFA7B8A3C
:100CF00003337B81414B1B889BB27A899A4211D284
:100D00003E4B1B889AB27B89D31A3B817B893C4A34
:100D100013443A8919463A4806F044FA374A3B895F
:100D2000138007E0354B00221A80802200213448CE
:100D300006F051FA62B600BF02F044F90346324AA7
:100D400013604FF480720021304806F044FABB89EA
:100D50002C4A40F212712E48FFF7C2FE294B1B7835
:100D6000FB71FB792E2B14D02E2B19DC222B02D0F9
:100D7000272B07D014E03B1DB989244A214800F0F5
:100D8000A5F819E03B1DB989204A1E4800F0F0F98A
:100D900012E03B1DB9891D4A1A4800F01FFB0BE009
:100DA0001A4B7F221A70194AFB795370174B112284
:100DB0009A700323BB8000BFBB88144A40F2A27123
:100DC0001448FFF78DFEBB8819461048FFF722FE36
:100DD00010E072B600BF094B00221A808022002169
:100DE000074806F0F8F962B604E000BF02E000BF71
:100DF00000E000BF1837BD4680BD00BFF8080020E6
:100E0000FC08002070020020700500207003002004
:100E1000A80700201808002080B500AF00F0F8F8FF
:100E2000FFF7DEFE00BF80BD80B500AF02F0CAF85C
:100E30000246064B1B68D31A40F2F312934294BF4A
:100E400001230023DBB2184680BD00BF70050020DF
:100E500080B485B000AF0346FB80FB8840F6E442D7
:100E600002FB03F3174A82FB03121A44D212DB1768
:100E7000D31ABB60BB68A3F53E7213469B001344B4
:100E80005B00114A82FB0312D210DB17D31A19330D
:100E9000FB60FB68002B02DA0023FB6004E0FB68C8
:100EA0007D2B01DD7D23FB60FB88002B01D11C2302
:100EB000FB60FB68DBB218461437BD465DF8047B67
:100EC000704700BF810008801F85EB5180B586B058
:100ED00000AFF8607A603B600B467B817B89032B17
:100EE0000FD07B687F221A707B68013322221A7030
:100EF0007B68023313221A703B6803221A80002396
:100F00005FE0FB6801331B781BB21B021AB2FB685F
:100F100002331B781BB213431BB2FB82FB8A40F2E5
:100F20002312934203D0B3F5927F20D03AE0FFF72B
:100F300045FD03467B827B6862221A707B68013321
:100F400001221A707B68023323221A707B8A1B0AE3
:100F50009AB27B680333D2B21A707B6804337A8A00
:100F6000D2B21A703B6805221A80012329E0174B80
:100F70001B881846FFF76CFF03467B757B6862226F
:100F80001A707B68013301221A707B6802332422B5
:100F90001A707B6803337A7D1A703B6804221A80CA
:100FA00001230EE07B687F221A707B6801332222C6
:100FB0001A707B68023331221A703B6803221A8050
:100FC000002318461837BD4680BD00BF0019002019
:100FD00080B500AF094B00221A70094B00221A603D
:100FE000084B00221A60084B00221A7000220121CF
:100FF000064804F047FB00BF80BD00BF7405002019
:10100000780500207C0500208005002000040240B7
:1010100080B582B000AF01F0D5FF7860144B1B782B
:10102000002B15D0134B1B687A689A420BD3104BD8
:1010300000221A70104B00221A70002201210F4862
:1010400004F020FB04E0012201210C4804F01AFB0B
:101050000B4B1B68002B07D0094B1B687A689A4220
:1010600002D3074B00221A6000BF0837BD4680BD7F
:10107000740500207805002080050020000402404F
:101080007C05002080B400AF034B1B781846BD469A
:101090005DF8047B704700BF7405002080B584B004
:1010A00000AF786001F08EFFF860304B1B887B81C9
:1010B000FB68DAB27B89DBB25340DAB27B681A7024
:1010C000FB681B0ADAB27B6801333A32D2B21A707B
:1010D000FB681B0CD9B27B891B099BB2DAB27B6817
:1010E00002334A40D2B21A70FB681B0EDAB27B6838
:1010F00003337B32D2B21A707B681B78002B16D177
:101100007B6801331B78002B11D17B6802331B787D
:10111000002B0CD17B6803331B78002B07D17B6835
:1011200024221A707B68033368221A7019E07B68E6
:101130001B78FF2B15D17B6801331B78FF2B10D157
:101140007B6802331B78FF2B0BD17B6803331B7842
:10115000FF2B06D17B68AA221A707B6803335522C5
:101160001A7000BF1037BD4680BD00BF00190020B7
:1011700080B586B000AFF8607A603B600B467B813B
:101180007B89012B0FD87B687F221A707B68013323
:1011900027221A707B68023313221A703B680322DD
:1011A0001A8000230AE1FB6801331B78FB75FB7D85
:1011B000012B53D17B89022B0FD07B687F221A70C1
:1011C0007B68013327221A707B68023313221A705E
:1011D0003B6803221A800023F0E07A4B1B68002B47
:1011E00016D001F0EFFE0246764B1B689A420FD2F2
:1011F0007B687F221A707B68013327221A707B6814
:10120000023337221A703B6803221A800023D5E08C
:101210006D48FFF743FF6D4B01221A707B68672210
:101220001A707B68013301221A707B680233664AA8
:1012300012781A707B680333634A52781A707B689D
:101240000433614A92781A707B6805335E4AD2781B
:101250001A703B6806221A800123AFE0FB7D022B47
:1012600040F09D807B89062B0FD07B687F221A700F
:101270007B68013327221A707B68023313221A70AD
:101280003B6803221A80002398E0504B1B78002B08
:101290000FD17B687F221A707B68013327221A7076
:1012A0007B68023335221A703B6803221A800023C0
:1012B00084E0454B1A78444B5B785340DBB23B7477
:1012C000414B5A78404B9B781344DBB27B743E4BC6
:1012D0009A783D4BDB785340DBB2BB743A4BDA78FB
:1012E000394B1B781344DBB2FB74FB6802331A786A
:1012F0003B7C9A4230D1FB6803331A787B7C9A425C
:101300002AD1FB6804331A78BB7C9A4224D1FB684B
:1013100005331A78FB7C9A421ED12D4B01221A709C
:1013200001F050FE034603F56A531833294A13604F
:10133000264B00221A7001220121274804F0A2F94D
:101340007B6867221A707B68013302221A703B683F
:1013500002221A80012331E01D4B00221A701B4B20
:1013600000221A7001F02EFE034603F51C531033C1
:10137000144A136000220121174804F083F97B68A6
:101380007F221A707B68013327221A707B68023330
:1013900035221A703B6803221A8000230EE07B6816
:1013A0007F221A707B68013327221A707B68023310
:1013B00012221A703B6803221A800023184618373D
:1013C000BD4680BD7C050020040000208005002073
:1013D00074050020780500200004024080B586B026
:1013E00000AFF8607A603B600B467B81FFF74AFEF6
:1013F0000346002B0FD17B687F221A707B68013374
:101400002E221A707B68023333221A703B68032243
:101410001A80002354E07B89042B0FD87B687F223D
:101420001A707B6801332E221A707B6802331322F4
:101430001A703B6803221A80002341E0FB680133E5
:101440001B781BB21B021AB2FB6802331B781BB25B
:1014500013431BB2FB82FB8A40F22312934220D13A
:10146000FB6803331B781BB21B021AB2FB68043300
:101470001B781BB213431BB2BB82BB8A1846FFF713
:10148000A9FA7B686E221A707B68013301221A70F8
:101490007B68023323221A703B6803221A800123DF
:1014A0000EE07B687F221A707B6801332E221A704F
:1014B0007B68023331221A703B6803221A800023B2
:1014C00018461837BD4680BD80B400AF00BF00BFCE
:1014D00000BF00BF00BF00BF00BF00BF00BFBD46D0
:1014E0005DF8047B7047000080B584B000AF034610
:1014F000FB710023FB731CE097F90730002B03DA24
:10150000104B80229A6103E00E4B4FF400029A6167
:10151000FFF7DAFF0C4B08229A61FFF7D5FF0A4B61
:101520004FF400229A61FB795B00FB71FB7B013376
:10153000FB73FB7B072BDFD900BF00BF1037BD4615
:1015400080BD00BF000002400004024080B582B0B0
:1015500000AF0346FB710B4B4FF080729A61094B51
:101560004FF400029A61FFF7AFFFFB791846FFF7CF
:10157000BBFF044B80229A61FFF7A6FF00BF08372C
:10158000BD4680BD0004024080B582B000AF034676
:10159000FB710B4B4FF480729A61094B4FF40002C0
:1015A0009A61FFF791FFFB791846FFF79DFF044B07
:1015B00080229A61FFF788FF00BF0837BD4680BDD3
:1015C0000004024080B588B000AF0023BB60424BEE
:1015D0001B6B414A43F0010313633F4B1B6B03F04A
:1015E0000103BB60BB6800237B603B4B1B6B3A4A2B
:1015F00043F002031363384B1B6B03F002037B6061
:101600007B6807F10C0300221A605A609A60DA6066
:101610001A618023FB6001233B6101237B6102236C
:10162000BB6107F10C0319462C4803F07BFD4023F6
:10163000FB6000233B6101237B6107F10C0319462A
:10164000264803F06FFD4FF4E673FB6001233B6116
:1016500001237B610223BB6107F10C03194620487B
:1016600003F060FD4FF40073FB6001233B61012335
:101670007B610223BB6107F10C031946184803F094
:1016800051FD01224FF40071154803F0FBFF1023B8
:10169000FB6000233B6101237B6107F10C031946CA
:1016A0000F4803F03FFD012280210D4803F0EAFFBF
:1016B00001224FF480710A4803F0E4FF0022082160
:1016C000074803F0DFFF01224021054803F0DAFF5D
:1016D00000BF2037BD4680BD0038024000000240F8
:1016E0000004024080B500AFFFF76CFF0022042128
:1016F000674803F0C7FF192001F070FC01220421A4
:10170000634803F0BFFF782001F068FC1120FFF769
:101710001DFF782001F062FC3620FFF717FF002044
:10172000FFF732FF3A20FFF711FF0520FFF72CFFEC
:10173000B220FFF70BFF0C20FFF726FF0C20FFF76E
:1017400023FF0020FFF720FF3320FFF71DFF33208A
:10175000FFF71AFFB720FFF7F9FE3520FFF714FF58
:10176000BB20FFF7F3FE2820FFF70EFFC020FFF796
:10177000EDFE2C20FFF708FFC220FFF7E7FE012057
:10178000FFF702FFC320FFF7E1FE0B20FFF7FCFE8F
:10179000C420FFF7DBFE2020FFF7F6FEC620FFF790
:1017A000D5FE0F20FFF7F0FED020FFF7CFFEA420DC
:1017B000FFF7EAFEA120FFF7E7FEE020FFF7C6FEF5
:1017C000D020FFF7E1FE0120FFF7DEFE0820FFF743
:1017D000DBFE0F20FFF7D8FE1120FFF7D5FE2A20F1
:1017E000FFF7D2FE3620FFF7CFFE5520FFF7CCFEE5
:1017F0004420FFF7C9FE3A20FFF7C6FE0B20FFF793
:10180000C3FE0620FFF7C0FE1120FFF7BDFE20201B
:10181000FFF7BAFEE120FFF799FED020FFF7B4FEF4
:101820000220FFF7B1FE0720FFF7AEFE0A20FFF708
:10183000ABFE0B20FFF7A8FE1820FFF7A5FE342013
:10184000FFF7A2FE4320FFF79FFE4A20FFF79CFE12
:101850002B20FFF799FE1B20FFF796FE1C20FFF7B9
:1018600093FE2220FFF790FE1F20FFF78DFE212020
:10187000FFF76CFE0A2001F0B1FB2920FFF766FE9E
:10188000322001F0ABFB002000F050F800BF80BD1B
:101890000004024090B583B000AF044608461146EC
:1018A0001A462346FB800346BB800B467B801346CB
:1018B0003B802A20FFF74AFEFB881B0A9BB2DBB263
:1018C0001846FFF761FEFB88DBB21846FFF75CFEA7
:1018D0007B881B0A9BB2DBB21846FFF755FE7B885C
:1018E000DBB21846FFF750FE2B20FFF72FFEBB8818
:1018F0001B0A9BB2DBB21846FFF746FEBB88DBB281
:101900001846FFF741FE3B881B0A9BB2DBB2184624
:10191000FFF73AFE3B88DBB21846FFF735FE2C2076
:10192000FFF714FE00BF0C37BD4690BD80B584B0F4
:1019300000AF0346FB8040F23F13EF22002100205E
:10194000FFF7A8FF154B4FF480729A61134B4FF4C9
:1019500000029A61FFF7B8FDFB881B0A9BB2FB727D
:10196000FB88BB720023FB600AE0FB7A1846FFF796
:10197000BBFDBB7A1846FFF7B7FDFB680133FB6080
:10198000FB68B3F5963FF0D3044B80229A61FFF7D2
:101990009BFD00BF1037BD4680BD00BF0004024064
:1019A00090B585B000AF0446084611461A46234656
:1019B000FB800346BB800B46FB7013463B80FB78E5
:1019C0001F2B02D9FB787E2B01D92023FB70FB78DB
:1019D000203B7B73FB8807339AB2BB880F339BB2E3
:1019E000B988F888FFF756FF284B4FF480729A6148
:1019F000264B4FF400029A61FFF766FD3B881B0AF5
:101A00009BB23B733B88FB723B8C1B0A9BB2BB7245
:101A10003B8C7B720023FB732CE07A7BFB7B1C49A5
:101A200012010A4413441B783B720023BB731BE072
:101A30003A7ABB7B802141FA03F31340002B08D094
:101A40003B7B1846FFF750FDFB7A1846FFF74CFD2D
:101A500007E0BB7A1846FFF747FD7B7A1846FFF789
:101A600043FDBB7B0133BB73BB7B072BE0D9FB7B07
:101A70000133FB73FB7B0F2BCFD9044B80229A6180
:101A8000FFF722FD00BF1437BD4690BD00040240A1
:101A90007082000890B587B002AFBA601A4603465C
:101AA000FB810B46BB811346FB801CE0FB8908339E
:101AB000F02B09D90023FB81BB891033BB81BB8983
:101AC0001033B3F5A07F13D8BB685A1CBA601A78DC
:101AD000FC88B989F8893B8C00932346FFF760FFA7
:101AE000FB890833FB81BB681B78002BDED100E04B
:101AF00000BF00BF1437BD4690BD000090B587B051
:101B000000AF0446084611461A462346FB800346AA
:101B1000BB800B46FB7013463B80FB781F2B02D922
:101B2000FB787E2B01D92023FB70FB78203B7B7553
:101B3000FB880633F02B76D8BB880C33B3F5A07F37
:101B400071D8FB8805339AB2BB880B339BB2B98836
:101B5000F888FFF79FFE364B4FF480729A61344B42
:101B60004FF400029A61FFF7AFFC3B881B0A9BB25F
:101B70003B753B88FB743B8D1B0A9BB2BB743B8D52
:101B80007B740023FB7545E0FB7D072B8CBF012395
:101B90000023DBB23B74FB7D072B03D9FB7D083BA5
:101BA000DBB200E0FB7DFB73FB7B802242FA03F398
:101BB000BB730023BB7527E07A7DBB7D59003B7C5E
:101BC00019441C4813465B0013449B0003440B4418
:101BD0001B787B737A7BBB7B1340DBB2002B08D076
:101BE0003B7D1846FFF780FCFB7C1846FFF77CFC2A
:101BF00007E0BB7C1846FFF777FC7B7C1846FFF7B5
:101C000073FCBB7D0133BB75BB7D052BD4D9FB7D3C
:101C10000133FB75FB7D0B2BB6D9054B80229A61F6
:101C2000FFF752FC00E000BF1C37BD4690BD00BF6F
:101C300000040240FC7D000890B587B002AFBA6096
:101C40001A460346FB810B46BB811346FB8012E01C
:101C5000FB890633F02B13D8BB685A1CBA601A787C
:101C6000FC88B989F8893B8C00932346FFF746FF2F
:101C7000FB890633FB81BB681B78002BE8D100E0B1
:101C800000BF00BF1437BD4690BD80B500AF00F067
:101C900003F800BF80BD000080B586B004AF00200F
:101CA000FFF744FE002300934FF4FC63294A0E2102
:101CB0004020FFF7EFFE0023009340F2FF73264A17
:101CC00020211420FFF7E6FE002300934FF6E07377
:101CD000224A32211020FFF7DDFE0023009340F25C
:101CE000FF731D4A80211420FFF7D4FE00230093C8
:101CF0004FF6E0731A4A92211020FFF7CBFE002323
:101D0000FB7111E0FA79174913469B001344DB007D
:101D10000B4400221A70FB79134A4FF6FF7122F828
:101D20001310FB790133FB71FB79082BEAD9A1234E
:101D30000393552302933323019322230093122309
:101D400000223321222000F011F800BF0837BD46E1
:101D500080BD00BFEC7A0008FC7A0008187B000800
:101D6000347B000884050020EC06002090B591B07B
:101D700004AF0446084611461A462346FB71034643
:101D8000BB710B467B7113467B80F979BB797A79FD
:101D900007F10C00019200930B461F4A242105F025
:101DA000A9F907F10C02002300934FF6FF734421B9
:101DB0001020FFF76FFE7C8897F8403097F844209A
:101DC00097F8481007F10C00029101920093234606
:101DD000124A242105F08EF907F10C02002300932A
:101DE0004FF6FF7358211020FFF754FE97F84C3040
:101DF00007F10C000A4A242105F07CF907F10C02D6
:101E0000002300934FF6FF736C211020FFF742FE72
:101E100000BF3437BD4690BD487B0008687B000892
:101E2000847B000880B586B002AF78600B467B806B
:101E30000823FB7330E097F90F2013469B001344EF
:101E4000DB00364A981897F90F305A1E13469B004C
:101E50001344DB00314A13442722194605F0C3F925
:101E600097F90F202D4913469B001344DB000B44C8
:101E7000273300221A7097F90F305A1E97F90F3046
:101E8000274931F81210264A22F8131097F90F301B
:101E9000DBB2013BDBB2FB7397F90F30002BCADCDE
:101EA000272279681D4805F09EF91C4B002283F813
:101EB00027201B4A7B8813800023BB7325E0BB7B54
:101EC0009BB21A461201D31A9BB2A633BB81BA7BCE
:101ED000124913469B001344DB000B441B78002B74
:101EE00010D0BA7B13469B001344DB000B4A1A4404
:101EF000BB7B0B4931F81330B989002000901020CA
:101F0000FFF79AFEBB7B0133BB73BB7B082BD6D993
:101F100000BF00BF1037BD4680BD00BF8405002054
:101F2000EC06002080B586B000AF40210E4803F0DB
:101F300095FA3B1D00221A605A609A60DA601A61B5
:101F400040237B600223BB600023FB6003233B61D3
:101F500009237B613B1D1946034803F0E3F800BFEA
:101F60001837BD4680BD00BF00040240F0B593B0F5
:101F700004AF00F0C1FF00F03BF900F0B1FA00F04F
:101F80008FFA00F063FA00F0EFF900F025FA00F0A4
:101F900099F9FFF7A7FBFFF778FEFFF7C3FF00F003
:101FA0003FFB00F0A9FBFEF735FB01227849794899
:101FB00001F07CF8FEF7D4FC01227749774804F061
:101FC00012F9774B01221A70764800F009FCFEF7EF
:101FD00023FF754B1B78DBB2012B23D1724B002200
:101FE0001A70724B1B68A22B1CD1714B1A78714B63
:101FF0001A706F4B5A78704B1A706D4BDA796F4BC1
:102000001A706F4B1B78DBB2002B0BD0FEF70CFF66
:102010000346002B06D1654B1B689BB264491846EA
:1020200000F0FCFB674B1B78DBB2012B1BD1654B2F
:1020300000221A70FEF7DEFB7863FEF7E5FB03462D
:102040007B865F4B1B78DBB2002B09D0FEF7ECFEE2
:102050000346002B04D17B8E796B184600F0DEFB23
:10206000786BFEF74BFC584B1A68584B1B68D31A19
:10207000F92B48D9544B1B68544A1360FEF7BAFB3E
:10208000F862FEF7C1FB03467B854A4B1C784A4B3E
:102090001D784A4B1E78FB6A1B78FA6A0132127867
:1020A000F96A02310978F86A06300078B7F82AC070
:1020B00003900291019200936346324629462046DE
:1020C000FFF754FE404B1A6853094149A1FB031323
:1020D000DB09404901FB03F3D31A364A1278114653
:1020E000354A12781446354A1278384602920194DD
:1020F0000091394A282104F0FDFF3B4640F2FF7170
:102100001846FFF78FFE4FF40051344803F0A2FA4F
:10211000034687F82930324B1B78012B11D197F8F1
:102120002930002B0DD1264B1B78DBB2002B0CBFC6
:1021300001230023DBB21A46214B1A70142000F051
:1021400039FC274A97F8293013700121254803F0FC
:1021500081FA0346002B7FF43AAF142000F02AFCEA
:10216000214800F03DFB00BF01211E4803F072FA38
:102170000346002BF8D0142000F01CFCFEF73AFCBC
:1021800000F04EFA00F0B8FA184800F029FB1EE7FC
:102190000019002000070020FC180020D0070020B4
:1021A0006C0200209C7B00082019002058080020A9
:1021B0000419002008000020090000201819002040
:1021C0000A0000206D020020141900201C190020B4
:1021D000C55A7C0AA0860100D87B0008000802408E
:1021E0000B00002000000240F87B0008007C000883
:1021F00080B594B000AF07F12003302200211846CB
:1022000004F0E9FF07F10C0300221A605A609A609B
:10221000DA601A610023BB60284B1B6C274A43F02D
:1022200080531364254B1B6C03F08053BB60BB6869
:1022300000237B60224B1B68214A43F480431360D8
:102240001F4B1B6803F480437B607B6802233B6267
:102250000123FB6210233B630223BB630023FB6368
:1022600008233B64A8237B640223BB640423FB6430
:1022700007F12003184603F043FA0346002B01D070
:1022800000F0A6FB0F23FB6002233B6100237B6170
:102290004FF4A053BB614FF48053FB6107F10C0373
:1022A0000521184603F0A4FC0346002B01D000F0E2
:1022B0008FFB00BF5037BD4680BD00BF00380240D5
:1022C0000070004080B584B000AF3B4600221A6029
:1022D0005A609A60DA60214B214A1A601F4B4FF412
:1022E00080325A601D4B00229A601C4B00221A61FA
:1022F0001A4B00221A76194B002283F82020174B24
:102300000022DA62154B174A9A62144B0022DA60F7
:10231000124B0122DA61114B012283F830200F4B5E
:1023200001225A610D4800F07DFE0346002B01D0CA
:1023300000F04EFB10233B6001237B600723BB6052
:102340003B461946054800F0E3FF0346002B01D049
:1023500000F03EFB00BF1037BD4680BD00070020E7
:10236000002001400100000F80B500AF184B194A52
:102370001A60174B06225A60154B00229A60144BC4
:102380004FF08072DA60124B4FF410221A61104B3A
:102390004FF400125A610E4B00221A760C4B0122A8
:1023A0005A760B4B00229A76094B0022DA76084BBC
:1023B00000221A77064B00225A77054801F048FAA6
:1023C0000346002B01D000F003FB00BF80BD00BF1F
:1023D000A80700200064004080B500AF184B194AE0
:1023E0001A60174B06225A60154B00229A60144B54
:1023F0004FF08072DA60124B4FF410221A61104BCA
:102400004FF400125A610E4B00221A760C4B012237
:102410005A760B4B00229A76094B0022DA76084B4B
:1024200000221A77064B00225A77054801F010FA6D
:102430000346002B02D0044800F0D2F900BF80BD53
:102440001808002000680040287C000880B500AF14
:10245000114B124A1A60104B4FF4E1325A600E4B86
:1024600000229A600C4B0022DA600B4B00221A61AA
:10247000094B0C225A61084B00229A61064B00223C
:10248000DA61054803F0D4FD0346002B01D000F0CB
:102490009FFA00BF80BD00BFD00700200048004069
:1024A00080B582B000AF00237B600C4B1B6B0B4AE6
:1024B00043F480031363094B1B6B03F480037B60BD
:1024C0007B6800220021382002F0F3F9382002F066
:1024D0000CFA00BF0837BD4680BD00BF003802407F
:1024E00080B58AB000AF07F1140300221A605A6069
:1024F0009A60DA601A6100233B61454B1B6B444ACA
:1025000043F004031363424B1B6B03F004033B6172
:102510003B690023FB603E4B1B6B3D4A43F080034D
:1025200013633B4B1B6B03F08003FB60FB680023D2
:10253000BB60374B1B6B364A43F001031363344BCC
:102540001B6B03F00103BB60BB6800237B60304B57
:102550001B6B2F4A43F0020313632D4B1B6B03F0DD
:1025600002037B607B6842F2F0037B610023BB6166
:102570000123FB6107F114031946264802F0D2FD3E
:1025800001237B614FF40413BB610123FB6107F15D
:1025900014031946204802F0C5FD02237B61002385
:1025A000BB610123FB6107F1140319461A4802F0CD
:1025B000B9FD60237B610223BB610023FB61032320
:1025C0003B6209237B6207F114031946134802F0AA
:1025D000A9FD01237B610123BB610023FB61002373
:1025E0003B6207F1140319460C4802F09BFD0022E0
:1025F00001210A4803F046F800220121062002F0DA
:1026000058F9062002F071F900BF2837BD4680BD99
:10261000003802400008024000000240000402406E
:1026200080B500AF2D4800F0DBF82D4801F02EFBFF
:102630002C4B00225A612B4B00229A61294B01221C
:10264000DA61284B00221A60264B00225A60254B83
:1026500000229A60234B0022DA60224B00221A618A
:10266000204B01221A621F4B0E225A621D491C4840
:1026700001F0EAF90346002B02D01B4800F0B0F845
:10268000174801F0BFFA0346002B08D0174800F0A6
:10269000A7F8134802F00EF8114801F0B3FA02212E
:1026A0000F4801F0A8FDFEF789F903461A46104BC2
:1026B0001A600F4B00225A600D4B00229A600C4B9F
:1026C0000022DA600A4B08221A61094B00221A75AF
:1026D000084800F085F800BF80BD00BF4C7C0008B2
:1026E000A807002074080020687C00088C7C000883
:1026F00040080020AC7C000880B500AF2F4800F0F7
:102700006FF82F4B93F82030DBB2022B02D12C480C
:1027100001F0BCFA2B4B0E225A612A4B00229A611F
:10272000284B0122DA61274B00221A60254B002238
:102730005A60244B00229A60224B0022DA60214B1F
:1027400000221A611F4B01221A621E4B0E225A628E
:102750001C491D4801F078F90346002B02D01B48A4
:1027600000F03EF8164801F04DFA0346002B02D067
:10277000174800F035F80221114801F03CFD0346EE
:10278000002B02D0134800F02BF8134B40F2A2723A
:102790001A60114B00225A600F4B00229A600E4BB8
:1027A0000022DA600C4B08221A610B4B00221A75CA
:1027B0000A4800F015F800BF80BD00BFE47C0008A7
:1027C00018080020D0080020A8070020007D00087D
:1027D000247D0008407D00089C0800206C7D0008D6
:1027E00080B584B000AF78600023FB8102E0FB89F4
:1027F0000133FB81FB897A6813441B78002BF6D1E7
:10280000FA894FF0FF337968034803F061FC00BF99
:102810001037BD4680BD00BFD0070020F0B5A3B083
:1028200008AF03463961FB82204B1B78DBB2002BDB
:1028300038D01F4B1A68F98A3B691B781C463B69E4
:1028400001331B781D463B6902331B781E463B69EA
:1028500003331B78FB603B6904331B78BB603B6927
:1028600005331B787B603B6906331B783B603B6913
:1028700007331B7807F1180007933B6806937B68C2
:102880000593BB680493FB6803930296019500943B
:102890000B46084904F064FC07F118031846FFF7DB
:1028A0009FFF00E000BF6C37BD46F0BD0A0000206E
:1028B000141900209C7D000880B582B000AF7860BC
:1028C0007B681B68134A934220D1134B1B78DBB201
:1028D000002B02D0104B00221A70104B1B889BB2A9
:1028E00040F6FE7293420CD80C4B1B889BB25A1CCC
:1028F00091B20A4A11801A46094B1B78D9B2094B8A
:10290000995401220649084803F06DFC00BF0837BE
:10291000BD4680BD004800400A000020F8080020A5
:10292000FC180020FC080020D007002080B586B0ED
:1029300000AF78607B681B681B4A934230D100234C
:102940007B617B681B681B687B617B681B685B68BD
:102950007B617B6900233B617B681B681B683B6173
:102960007B681B685B683B613B690023FB607B689D
:102970001B681B68FB607B681B685B68FB60FB680F
:102980000023BB607B681B681B68BB607B681B689F
:102990005B68BB60BB6801220449054803F023FC67
:1029A00000BF1837BD4680BD00480040FC1800201D
:1029B000D007002080B582B000AF0346FB80FB88C3
:1029C000184600F00BFB00BF0837BD4680BD000075
:1029D00080B500AF0348FFF703FF72B600BF00BF2A
:1029E000FDE700BFD07D000880B483B000AF0023B6
:1029F0007B60104B5B6C0F4A43F4804353640D4B78
:102A00005B6C03F480437B607B6800233B60094B75
:102A10001B6C084A43F080531364064B1B6C03F095
:102A200080533B603B6800BF0C37BD465DF8047BBC
:102A3000704700BF0038024080B584B000AF7860B6
:102A40007B681B68224A93423ED10023FB60214BE6
:102A50005B6C204A43F4807353641E4B5B6C03F43D
:102A60008073FB60FB681C4B1C4A1A601A4B0022E7
:102A70005A60194B00229A60174B0022DA60164BFD
:102A80004FF480621A61144B4FF400625A61124B8A
:102A90004FF400529A61104B4FF48072DA610E4B82
:102AA0004FF480321A620C4B00225A620A4801F03D
:102AB00037FF0346002B01D0FFF78AFF7B68064AE9
:102AC0009A63054A7B68936300BF1037BD4680BD9B
:102AD00000200140003802404807002010640240F6
:102AE00080B58CB000AF786007F11C0300221A603B
:102AF0005A609A60DA601A617B681B68414A9342A7
:102B000035D10023BB61404B1B6C3F4A43F000733F
:102B100013643D4B1B6C03F00073BB61BB69002366
:102B20007B61394B1B6B384A43F001031363364B0F
:102B30001B6B03F001037B617B694FF4C053FB61A6
:102B400002233B6200237B620323BB620923FB62F7
:102B500007F11C0319462D4802F0E4FA0022022175
:102B6000142001F0A6FE142001F0BFFE46E07B68B1
:102B70001B68274A934241D100233B61224B1B6CC7
:102B8000214A43F0007313641F4B1B6C03F0007366
:102B90003B613B690023FB601B4B1B6C1A4A43F0F3
:102BA00080631364184B1B6C03F08063FB60FB684D
:102BB0000023BB60144B1B6B134A43F002031363E7
:102BC000114B1B6B03F00203BB60BB686023FB610E
:102BD00002233B6200237B620323BB620923FB6267
:102BE00007F11C0319460B4802F09CFA002202214F
:102BF000402001F05EFE402001F077FE00BF30373C
:102C0000BD4680BD00640040003802400000024024
:102C1000006800400004024080B58AB000AF7860D0
:102C200007F1140300221A605A609A60DA601A6190
:102C30007B681B681D4A934234D100233B611C4BC7
:102C40001B6C1B4A43F480231364194B1B6C03F465
:102C500080233B613B690023FB60154B1B6B144ACF
:102C600043F004031363124B1B6B03F00403FB607C
:102C7000FB684FF440637B610223BB610023FB616F
:102C800003233B6207237B6207F1140319460948BB
:102C900002F048FA00220121272001F00AFE272035
:102CA00001F023FE00BF2837BD4680BD004800402C
:102CB000003802400008024080B400AF00BFFDE7CA
:102CC00080B400AF00BFFDE780B400AF00BFFDE7F8
:102CD00080B400AF00BFFDE780B400AF00BFFDE7E8
:102CE00080B400AF00BFBD465DF8047B704780B480
:102CF00000AF00BFBD465DF8047B704780B400AFF5
:102D000000BFBD465DF8047B7047000080B500AF92
:102D100000F044F9044B1B680133034A1360FDF7CC
:102D200035FD00BF80BD00BF1419002080B500AF85
:102D3000012002F0C1FC00BF80BD000080B500AFE3
:102D4000104801F07EFA104B104A00210D4801F0A6
:102D500030F90346002B13D10C4B1B6840F2A272D2
:102D6000934207D1094B1B69DBB219460648FDF7B0
:102D70002BFF05E0064B01221A700348FDF772FD98
:102D800000BF80BDA80700200419002058080020BB
:102D90002019002080B500AF114801F052FA114B04
:102DA000114A00210E4801F004F90346002B14D10A
:102DB0000D4B1B6840F21272934207D10A4B1B69FC
:102DC000DBB219460748FDF7F3FE06E0064B1B6829
:102DD000122B02D10348FDF791FD00BF80BD00BF5B
:102DE000180800200C190020B408002080B500AF9E
:102DF000024803F01DFA00BF80BD00BFD0070020CD
:102E000080B500AF024801F023FF00BF80BD00BFC6
:102E10004807002080B586B000AF7860144A154B93
:102E2000D31A7B617B693B61134B1B68002B02D17A
:102E3000114B124A1A60104B1A687B6813443A69A6
:102E40009A4207D204F0E2F903460C221A604FF0CE
:102E5000FF3309E0084B1B68FB60074B1A687B686F
:102E60001344054A1360FB6818461837BD4680BDF9
:102E7000000002200004000024190020781A00201D
:102E800080B400AF064BD3F88830054A43F4700392
:102E9000C2F8883000BFBD465DF8047B704700BFB4
:102EA00000ED00E0DFF834D00D480E490E4A002353
:102EB00002E0D458C4500433C4188C42F9D30B4AEE
:102EC0000B4C002301E013600432A242FBD3FFF756
:102ED000D7FF04F0A1F9FFF749F87047000002207E
:102EE0000000002068000020C4880008680000205E
:102EF000741A0020FEE7000080B500AF0E4B1B687F
:102F00000D4A43F4007313600B4B1B680A4A43F4E9
:102F100080631360084B1B68074A43F48073136097
:102F2000032001F0BBFC002000F008F8FFF75CFD77
:102F30000023184680BD00BF003C024080B582B02F
:102F400000AF7860124B1A68124B1B7819464FF489
:102F50007A73B3FBF1F3B2FBF3F3184601F0D3FC41
:102F60000346002B01D001230EE07B680F2B0AD80B
:102F7000002279684FF0FF3001F09BFC064A7B6825
:102F80001360002300E0012318460837BD4680BDCA
:102F90000C000020140000201000002080B400AFBE
:102FA000064B1B781A46064B1B681344044A1360F1
:102FB00000BFBD465DF8047B704700BF14000020D1
:102FC0002819002080B400AF034B1B681846BD468B
:102FD0005DF8047B704700BF2819002080B584B0DD
:102FE00000AF7860FFF7EEFFB8607B68FB60FB68BE
:102FF000B3F1FF3F05D00A4B1B781A46FB68134418
:10300000FB6000BFFFF7DEFF0246BB68D31AFA6819
:103010009A42F7D800BF00BF1037BD4680BD00BF41
:103020001400002080B584B000AF78600023FB73EB
:103030007B68002B01D1012333E07B681B6C002BE4
:1030400009D17868FFF7F8FC7B6800225A647B6836
:10305000002283F83C207B681B6C03F01003002BDC
:1030600018D17B681B6C23F4885323F0020343F0D0
:1030700002027B681A64786800F06CFA7B680022B0
:103080005A647B681B6C23F0030343F001027B68E6
:103090001A6401E00123FB737B68002283F83C2063
:1030A000FB7B18461037BD4680BD000080B588B058
:1030B00000AFF860B9607A6000237B610023FB7782
:1030C000FB6893F83C30012B01D10223EBE0FB6855
:1030D000012283F83C20FB681B689B6803F0010316
:1030E000012B18D0FB681B689A68FB681B6842F0CC
:1030F00001029A606E4B1B686E4AA2FB03239A0C76
:1031000013465B0013447B6102E07B69013B7B61FA
:103110007B69002BF9D1FB681B689B6803F4807303
:10312000B3F5807F07D1FB681B689A68FB681B6852
:1031300022F480729A60FB681B689B6803F00103AD
:10314000012B40F0A380FB681B6C23F4E06323F0A9
:10315000010343F48072FB681A64FB681B685B68B8
:1031600003F48063002B07D0FB681B6C23F44053EF
:1031700043F48052FB681A64FB681B6C03F48053B1
:10318000B3F5805F06D1FB685B6C23F00602FB6839
:103190005A6402E0FB6800225A64FB68002283F84C
:1031A0003C20454BBB61FB689B6B444ADA63FB6880
:1031B0009B6B434A1A64FB689B6B424ADA64FB6868
:1031C0001B686FF022021A60FB681B685A68FB6874
:1031D0001B6842F080625A60FB681B689A68FB6853
:1031E0001B6842F480729A60FB68986BFB681B68EE
:1031F0004C331946BA687B6801F040FC0346FB7704
:10320000BB695B6803F01F03002B2AD1FB681B68B6
:103210002D4A934215D0FB681B682C4A934205D176
:10322000254B5B6803F01F03002B0AD0FB681B686B
:10323000274A934236D1204B5B6803F01003002BE2
:1032400030D1FB681B689B6803F04053002B29D1E9
:10325000FB681B689A68FB681B6842F080429A60B2
:1032600020E0FB681B68184A93421BD1FB681B686F
:103270009B6803F04053002B14D1FB681B689A68CD
:10328000FB681B6842F080429A600BE0FB681B6C95
:1032900043F01002FB681A64FB685B6C43F00102A8
:1032A000FB685A64FB7F18462037BD4680BD00BFCF
:1032B0000C00002083DE1B43002301404D37000833
:1032C0000738000823380008002001400021014091
:1032D0000022014080B483B000AF786000BF0C379B
:1032E000BD465DF8047B704780B483B000AF786062
:1032F00000BF0C37BD465DF8047B704780B483B0D7
:1033000000AF786000BF0C37BD465DF8047B7047A6
:1033100080B485B000AF786039600023BB607B6803
:1033200093F83C30012B01D1022305E17B68012297
:1033300083F83C203B681B68092B25D97B681B68F8
:10334000D9683B681B689BB21A4613465B0013445E
:103350001E3B072202FA03F3DA437B681B680A402C
:10336000DA607B681B68D9683B689A683B681B68B1
:103370009BB2184603465B0003441E3B9A407B68A1
:103380001B680A43DA6022E07B681B6819693B68A6
:103390001B689BB21A4613465B001344072202FACD
:1033A00003F3DA437B681B680A401A617B681B6879
:1033B00019693B689A683B681B689BB218460346CC
:1033C0005B0003449A407B681B680A431A613B68B0
:1033D0005B68062B24D87B681B68596B3B685A686E
:1033E00013469B001344053B1F2202FA03F3DA4302
:1033F0007B681B680A405A637B681B68596B3B6893
:103400001B689BB218463B685A6813469B001344DE
:10341000053B00FA03F27B681B680A435A634CE0E1
:103420003B685B680C2B24D87B681B68196B3B6876
:103430005A6813469B001344233B1F2202FA03F3EE
:10344000DA437B681B680A401A637B681B68196B48
:103450003B681B689BB218463B685A6813469B0042
:103460001344233B00FA03F27B681B680A431A6388
:1034700023E07B681B68D96A3B685A6813469B0047
:103480001344413B1F2202FA03F3DA437B681B68B3
:103490000A40DA627B681B68D96A3B681B689BB28A
:1034A00018463B685A6813469B001344413B00FA98
:1034B00003F27B681B680A43DA62224BFB607B687D
:1034C0001B68214A934209D13B681B68122B05D126
:1034D000FB685B6843F48002FB685A607B681B688A
:1034E000194A934223D13B681B68102B03D03B68D9
:1034F0001B68112B1BD1FB685B6843F40002FB685F
:103500005A603B681B68102B11D1104B1B68104A86
:10351000A2FB03239A0C13469B0013445B00BB6081
:1035200002E0BB68013BBB60BB68002BF9D17B6844
:10353000002283F83C20002318461437BD465DF86E
:10354000047B704700230140002001400C00002054
:1035500083DE1B4380B485B000AF7860794BFB609D
:10356000FB685B6823F44032FB685A60FB685A686A
:103570007B685B681A43FB685A607B681B685A6803
:103580007B681B6822F480725A607B681B685968EC
:103590007B681B691A027B681B680A435A607B6858
:1035A0001B685A687B681B6822F040725A607B680F
:1035B0001B6859687B689A687B681B680A435A6075
:1035C0007B681B689A687B681B6822F400629A60BB
:1035D0007B681B6899687B68DA687B681B680A43AC
:1035E0009A607B689B6A584A934222D07B681B682A
:1035F0009A687B681B6822F070629A607B681B681F
:1036000099687B689A6A7B681B680A439A607B6842
:103610001B689A687B681B6822F040529A607B683E
:103620001B6899687B68DA6A7B681B680A439A6042
:103630000FE07B681B689A687B681B6822F07062E9
:103640009A607B681B689A687B681B6822F040520E
:103650009A607B681B689A687B681B6822F002028C
:103660009A607B681B6899687B681B7E5A007B6840
:103670001B680A439A607B6893F82030002B1BD0AC
:103680007B681B685A687B681B6842F400625A605A
:103690007B681B685A687B681B6822F460425A602A
:1036A0007B681B6859687B685B6A013B5A037B68CF
:1036B0001B680A435A6007E07B681B685A687B688E
:1036C0001B6822F400625A607B681B68DA6A7B68B8
:1036D0001B6822F47002DA627B681B68D96A7B6817
:1036E000DB69013B1A057B681B680A43DA627B6869
:1036F0001B689A687B681B6822F400729A607B687A
:103700001B6899687B6893F830305A027B681B68A5
:103710000A439A607B681B689A687B681B6822F47E
:1037200080629A607B681B6899687B685B699A0213
:103730007B681B680A439A6000BF1437BD465DF87A
:10374000047B7047002301400100000F80B584B066
:1037500000AF78607B689B6BFB60FB681B6C03F0C1
:103760005003002B3CD1FB681B6C43F40072FB68D8
:103770001A64FB681B689B6803F04053002B2BD135
:10378000FB681B7E002B27D1FB681B68DB6A03F4F8
:103790007003002B06D0FB681B689B6803F48063F2
:1037A000002B19D1FB681B685A68FB681B6822F064
:1037B00020025A60FB681B6C23F48072FB681A6459
:1037C000FB681B6C03F48053002B05D1FB681B6C5A
:1037D00043F00102FB681A64F868FFF77BFD0EE016
:1037E000FB681B6C03F01003002B03D0F868FFF795
:1037F00085FD04E0FB689B6BDB6C7868984700BF35
:103800001037BD4680BD80B584B000AF78607B685E
:103810009B6BFB60F868FFF767FD00BF1037BD4684
:1038200080BD80B584B000AF78607B689B6BFB6027
:10383000FB6840221A64FB685B6C43F00402FB687F
:103840005A64F868FFF75AFD00BF1037BD4680BDC7
:1038500080B584B000AF78607B68002B01D1012374
:10386000EDE07B6893F82030DBB2002B02D1786862
:10387000FFF736F97B681B681A687B681B6842F0A3
:1038800001021A60FFF79EFBF86012E0FFF79AFB57
:103890000246FB68D31A0A2B0BD97B685B6A43F498
:1038A00000327B685A627B68052283F8202001235E
:1038B000C5E07B681B685B6803F00103002BE5D063
:1038C0007B681B681A687B681B6822F002021A601A
:1038D000FFF778FBF86012E0FFF774FB0246FB6825
:1038E000D31A0A2B0BD97B685B6A43F400327B68DE
:1038F0005A627B68052283F8202001239FE07B68C1
:103900001B685B6803F00203002BE5D17B681B7E1C
:10391000012B08D17B681B681A687B681B6842F022
:1039200080021A6007E07B681B681A687B681B6866
:1039300022F080021A607B685B7E012B08D17B68D5
:103940001B681A687B681B6842F040021A6007E037
:103950007B681B681A687B681B6822F040021A604B
:103960007B689B7E012B08D17B681B681A687B688B
:103970001B6842F020021A6007E07B681B681A6827
:103980007B681B6822F020021A607B68DB7E012BBB
:1039900008D17B681B681A687B681B6822F01002DC
:1039A0001A6007E07B681B681A687B681B6842F036
:1039B00010021A607B681B7F012B08D17B681B6893
:1039C0001A687B681B6842F008021A6007E07B688F
:1039D0001B681A687B681B6822F008021A607B6803
:1039E0005B7F012B08D17B681B681A687B681B68AA
:1039F00042F004021A6007E07B681B681A687B6863
:103A00001B6822F004021A607B689A687B68DB6896
:103A10001A437B681B691A437B685B6942EA0301AE
:103A20007B685B685A1E7B681B680A43DA617B68A7
:103A300000225A627B68012283F820200023184666
:103A40001037BD4680BD000080B487B000AF7860FD
:103A500039607B6893F82030FB75FB7D012B03D028
:103A6000FB7D022B40F0BE80654B3B613B69D3F888
:103A7000003243F001023B69C3F800223B69D3F8EE
:103A8000003223F47C523B69C3F800223B69D3F82F
:103A900000223B685B6A1B021A433B69C3F80022A1
:103AA0003B685B6903F01F03012202FA03F3FB602A
:103AB0003B69D3F81C22FB68DB431A403B69C3F81F
:103AC0001C223B68DB69002B23D13B69D3F80C2215
:103AD000FB68DB431A403B69C3F80C223B68DB6898
:103AE00019043B685B689BB23A68526919433B69A9
:103AF000483243F832103B689B6819043B681B68E6
:103B00009AB23B685B690A4339694833DB000B446E
:103B10005A603B68DB69012B22D13B69D3F80C2248
:103B2000FB681A433B69C3F80C223B681B68190405
:103B30003B685B689BB23A68526919433B694832FB
:103B400043F832103B689B6819043B68DB689AB203
:103B50003B685B690A4339694833DB000B445A60B0
:103B60003B689B69002B09D13B69D3F80422FB68B1
:103B7000DB431A403B69C3F8042207E03B69D3F8F2
:103B80000422FB681A433B69C3F804223B681B69A3
:103B9000002B09D13B69D3F81422FB68DB431A40A0
:103BA0003B69C3F8142207E03B69D3F81422FB6891
:103BB0001A433B69C3F814223B681B6A012B07D1E7
:103BC0003B69D3F81C22FB681A433B69C3F81C22EB
:103BD0003B69D3F8003223F001023B69C3F80022AD
:103BE000002306E07B685B6A43F480227B685A62AC
:103BF000012318461C37BD465DF8047B704700BFA3
:103C00000064004080B584B000AF78607B6893F8B2
:103C10002030DBB2012B2ED17B68022283F82020DA
:103C20007B681B681A687B681B6822F001021A60B7
:103C3000FFF7C8F9F86012E0FFF7C4F90246FB6825
:103C4000D31A0A2B0BD97B685B6A43F400327B687A
:103C50005A627B68052283F82020012312E07B68EA
:103C60001B685B6803F00103002BE5D17B68002231
:103C70005A62002306E07B685B6A43F400227B689B
:103C80005A62012318461037BD4680BD80B584B006
:103C900000AF78607B6893F82030DBB2022B33D121
:103CA0007B681B681A687B681B6842F001021A6017
:103CB000FFF788F9F86012E0FFF784F90246FB6825
:103CC000D31A0A2B0BD97B685B6A43F400327B68FA
:103CD0005A627B68052283F8202001231BE07B6861
:103CE0001B685B6803F00103002BE5D07B681B6851
:103CF0001A687B681B6822F002021A607B68012246
:103D000083F82020002306E07B685B6A43F480127E
:103D10007B685A62012318461037BD4680BD80B4C7
:103D200089B000AFF860B9607A603B60FB6893F8D7
:103D30002030FB77FB681B689B68BB61FB7F012B16
:103D400003D0FB7F022B40F0AD80BB6903F08063A2
:103D5000002B0AD1BB6903F00063002B05D1BB69BE
:103D600003F08053002B00F09580BB691B0E03F01D
:103D700003037B6101227B699A403B681A60BB6840
:103D80009B68002B0DD1BB681B685A05BB68DB68BC
:103D9000F96809681A437B6918331B010B441A60E0
:103DA0000FE0BB685B68DA00BB689B681A43BB68BE
:103DB000DB68F96809681A437B6918331B010B44F7
:103DC0001A60FB681968BB681A697B6918331B01A4
:103DD0000B4404331A60BB681B7D012B11D1FB68B7
:103DE0001A687B6918331B01134404331B68FA6893
:103DF000116843F480727B6918331B010B44043350
:103E00001A607B6807331B781A067B6806331B78B9
:103E10001B041A437B6805331B781B0213437A6823
:103E2000043212781046FA68116843EA00027B698E
:103E30001B010B4403F5C6731A607B6803331B78C0
:103E40001A067B6802331B781B041A437B68013314
:103E50001B781B0213437A6812781046FA681168BF
:103E600043EA00027B691B010B4403F5C4731A602B
:103E7000FB681A687B6918331B0113441B68FA68D6
:103E8000116843F001027B6918331B010B441A606F
:103E900000230EE0FB685B6A43F40012FB685A6281
:103EA000012306E0FB685B6A43F48022FB685A62E8
:103EB000012318462437BD465DF8047B704780B463
:103EC00085B000AF786039607B6893F82030FB7371
:103ED000FB7B012B02D0FB7B022B28D13B6803F03C
:103EE0000103002B07D07B681B689A687B681B68FE
:103EF00042F080029A603B6803F00203002B07D077
:103F00007B681B689A687B681B6842F400429A6071
:103F10003B6803F00403002B07D07B681B689A689A
:103F20007B681B6842F400029A60002306E07B680D
:103F30005B6A43F480227B685A6201231846143777
:103F4000BD465DF8047B704780B485B000AF7860F3
:103F50000023FB607B6893F82030FB72FB7A012B17
:103F600002D0FB7A022B1DD17B681B689B6803F093
:103F70008063002B02D0FB680133FB607B681B6809
:103F80009B6803F00063002B02D0FB680133FB60E9
:103F90007B681B689B6803F08053002B02D0FB6892
:103FA0000133FB60FB6818461437BD465DF8047B9F
:103FB000704780B487B000AFF860B9607A603B604A
:103FC000FB6893F82030FB75FB7D012B03D0FB7D54
:103FD000022B40F00381BB68002B0ED1FB681B68ED
:103FE000DB6803F00303002B16D1FB685B6A43F424
:103FF0000012FB685A620123F7E0FB681B681B692B
:1040000003F00303002B07D1FB685B6A43F4001243
:10401000FB685A620123E8E0FB681A68BB681B333F
:104020001B0113441B6803F004027B689A607B68E1
:104030009B68002B0CD1FB681A68BB681B331B0103
:1040400013441B685B0DC3F30A027B681A600BE024
:10405000FB681A68BB681B331B0113441B68DB0831
:1040600023F060427B685A60FB681A68BB681B33A8
:104070001B0113441B6803F002027B68DA60FB68D3
:104080001A68BB681B331B01134404331B6803F01D
:104090000803002B03D07B6808221A610BE0FB6841
:1040A0001A68BB681B331B01134404331B6803F0FD
:1040B0000F027B681A61FB681A68BB681B331B011F
:1040C000134404331B681B0ADAB27B689A61FB68ED
:1040D0001A68BB681B331B01134404331B681B0C99
:1040E0009AB27B685A61FB681A68BB681B0113446B
:1040F00003F5DC731B68DAB23B681A70FB681A6858
:10410000BB681B01134403F5DC731B681A0A3B6888
:104110000133D2B21A70FB681A68BB681B011344E2
:1041200003F5DC731B681A0C3B680233D2B21A70B9
:10413000FB681A68BB681B01134403F5DC731B683A
:104140001A0E3B680333D2B21A70FB681A68BB6858
:104150001B01134403F5DE731A683B680433D2B2C3
:104160001A70FB681A68BB681B01134403F5DE7301
:104170001B681A0A3B680533D2B21A70FB681A68CA
:10418000BB681B01134403F5DE731B681A0C3B6804
:104190000633D2B21A70FB681A68BB681B0113445D
:1041A00003F5DE731B681A0E3B680733D2B21A7030
:1041B000BB68002B08D1FB681B68DA68FB681B68CA
:1041C00042F02002DA6007E0FB681B681A69FB68AE
:1041D0001B6842F020021A61002306E0FB685B6A5C
:1041E00043F48022FB685A62012318461C37BD46FF
:1041F0005DF8047B704780B485B000AF78603960AB
:104200007B6893F82030FB73FB7B012B02D0FB7B98
:10421000022B09D17B681B6859697B681B683A6867
:104220000A435A61002306E07B685B6A43F48022FC
:104230007B685A62012318461437BD465DF8047B3B
:10424000704780B58AB000AF786000237B627B68DE
:104250001B685B693B627B681B685B68FB617B6812
:104260001B689B68BB617B681B68DB687B617B6844
:104270001B681B693B617B681B689B69FB603B6A31
:1042800003F00103002B7CD0BB6903F00103002B7A
:1042900023D07B681B6801229A60BB6903F002038C
:1042A000002B03D0786800F083F916E0BB6903F0B7
:1042B0000403002B04D07B6A43F400637B620CE0B0
:1042C000BB6903F00803002B04D07B6A43F48053DE
:1042D0007B6202E0786800F089F9BB6903F48073BF
:1042E000002B24D07B681B684FF480729A60BB69F6
:1042F00003F40073002B03D0786800F063F916E034
:10430000BB6903F48063002B04D07B6A43F4005341
:104310007B620CE0BB6903F40063002B04D07B6A72
:1043200043F480437B6202E0786800F069F9BB697E
:1043300003F48033002B24D07B681B684FF4803259
:104340009A60BB6903F40033002B03D0786800F057
:1043500043F916E0BB6903F48023002B04D07B6A89
:1043600043F400437B620CE0BB6903F40023002BA1
:1043700004D07B6A43F480337B6202E0786800F00B
:1043800049F93B6A03F00803002B0CD07B6903F06A
:104390001003002B07D07B6A43F400737B627B68B9
:1043A0001B681022DA603B6A03F00403002B0BD079
:1043B0007B6903F00803002B06D07B681B6808228A
:1043C000DA60786800F03AF93B6A03F00203002BE8
:1043D00009D07B681B68DB6803F00303002B02D065
:1043E000786800F021F93B6A03F04003002B0CD001
:1043F0003B6903F01003002B07D07B6A43F4806312
:104400007B627B681B6810221A613B6A03F0200301
:10441000002B0BD03B6903F00803002B06D07B6810
:104420001B6808221A61786800F01CF93B6A03F0E7
:104430001003002B09D07B681B681B6903F0030382
:10444000002B02D0786800F003F93B6A03F40033D4
:10445000002B0BD0FB6903F01003002B06D07B6808
:104460001B6810225A60786800F006F93B6A03F472
:104470008033002B0BD0FB6903F00803002B06D020
:104480007B681B6808225A60786800F0FFF83B6A76
:1044900003F40043002B7BD0FB6903F00403002BE3
:1044A00072D03B6A03F48073002B08D0FB6803F0E2
:1044B0000103002B03D07B6A43F001037B623B6A5C
:1044C00003F40073002B08D0FB6803F00203002BF9
:1044D00003D07B6A43F002037B623B6A03F4806390
:1044E000002B08D0FB6803F00403002B03D07B6A89
:1044F00043F004037B623B6A03F40063002B43D068
:10450000FB6803F07003002B3ED0FB6803F07003E0
:10451000602B2BD0602B2ED8502B22D0502B2AD89A
:10452000402B19D0402B26D8302B10D0302B22D83E
:10453000102B02D0202B05D01DE07B6A43F008032E
:104540007B6219E07B6A43F010037B6214E07B6AB4
:1045500043F020037B620FE07B6A43F040037B6201
:104560000AE07B6A43F080037B6205E07B6A43F4E8
:1045700080737B6200E000BF7B681B689A697B6880
:104580001B6822F070029A617B681B6804225A60E3
:104590007B6A002B08D07B685A6A7B6A1A437B6867
:1045A0005A62786800F07CF800BF2837BD4680BDAD
:1045B00080B483B000AF786000BF0C37BD465DF8B3
:1045C000047B704780B483B000AF786000BF0C37C5
:1045D000BD465DF8047B704780B483B000AF78605F
:1045E00000BF0C37BD465DF8047B704780B483B0D4
:1045F00000AF786000BF0C37BD465DF8047B7047A4
:1046000080B483B000AF786000BF0C37BD465DF862
:10461000047B704780B483B000AF786000BF0C3774
:10462000BD465DF8047B704780B483B000AF78600E
:1046300000BF0C37BD465DF8047B704780B483B083
:1046400000AF786000BF0C37BD465DF8047B704753
:1046500080B483B000AF786000BF0C37BD465DF812
:10466000047B704780B483B000AF786000BF0C3724
:10467000BD465DF8047B704780B483B000AF7860BE
:1046800000BF0C37BD465DF8047B704780B483B033
:1046900000AF786000BF0C37BD465DF8047B704703
:1046A00080B483B000AF786000BF0C37BD465DF8C2
:1046B000047B704780B485B000AF78600023FB7343
:1046C0007B6893F82030BB73BB7B012B02D0BB7B94
:1046D000022B03D17B6800225A6207E07B685B6A89
:1046E00043F480227B685A620123FB73FB7B1846EC
:1046F0001437BD465DF8047B7047000080B485B078
:1047000000AF78607B6803F00703FB600C4BDB684D
:10471000BB60BA684FF6FF031340BB60FB681A0228
:10472000BB68134343F0BF6343F40033BB60044AE8
:10473000BB68D36000BF1437BD465DF8047B70478B
:1047400000ED00E080B400AF044BDB681B0A03F00F
:1047500007031846BD465DF8047B704700ED00E096
:1047600080B483B000AF0346FB7197F90730002B8C
:104770000BDBFB7903F01F02074997F907305B0950
:10478000012000FA02F241F8232000BF0C37BD4699
:104790005DF8047B704700BF00E100E080B483B0A7
:1047A00000AF03463960FB7197F90730002B0ADB35
:1047B0003B68DAB20C4997F907301201D2B20B44C8
:1047C00083F800230AE03B68DAB20849FB7903F07A
:1047D0000F03043B1201D2B20B441A7600BF0C3710
:1047E000BD465DF8047B704700E100E000ED00E0AD
:1047F00080B489B000AFF860B9607A60FB6803F0FC
:104800000703FB61FB69C3F10703042B28BF0423E3
:10481000BB61FB690433062B02D9FB69033B00E053
:1048200000237B614FF0FF32BB6902FA03F3DA43E6
:10483000BB681A407B699A404FF0FF317B6901FAEF
:1048400003F3D9437B680B40134318462437BD4616
:104850005DF8047B7047000080B582B000AF7860DF
:104860007B68013BB3F1807F01D301230FE00A4A4B
:104870007B68013B53600F214FF0FF30FFF78EFF45
:10488000054B00229A60044B07221A600023184649
:104890000837BD4680BD00BF10E000E080B582B0A3
:1048A00000AF78607868FFF729FF00BF0837BD4682
:1048B00080BD80B586B000AF0346B9607A60FB73F7
:1048C00000237B61FFF73EFF78617A68B9687869F9
:1048D000FFF78EFF024697F90F3011461846FFF793
:1048E0005DFF00BF1837BD4680BD80B582B000AF08
:1048F0000346FB7197F907301846FFF731FF00BFF9
:104900000837BD4680BD80B582B000AF786078685A
:10491000FFF7A2FF034618460837BD4680BD0000DA
:1049200080B586B000AF786000237B61FEF74AFB5C
:1049300038617B68002B01D1012399E07B6802225A
:1049400083F835207B68002283F834207B681B685D
:104950001A687B681B6822F001021A600FE0FEF7FC
:1049600031FB02463B69D31A052B08D97B6820220C
:104970005A657B68032283F83520032378E07B683F
:104980001B681B6803F00103002BE8D17B681B68E0
:104990001B687B617A69384B13407B617B685A687E
:1049A0007B689B681A437B68DB681A437B681B69DA
:1049B0001A437B685B691A437B689B691A437B686F
:1049C000DB691A437B681B6A13437A6913437B6173
:1049D0007B685B6A042B07D17B68DA6A7B681B6B98
:1049E00013437A6913437B617B681B687A691A6099
:1049F0007B681B685B697B617B6923F007037B61D4
:104A00007B685B6A7A6913437B617B685B6A042B12
:104A100017D17B689B6A7A6913437B617B68DB6A89
:104A2000002B0ED0786800F001FB0346002B08D065
:104A30007B6840225A657B68012283F83520012378
:104A400016E07B681B687A695A61786800F0B8FAEA
:104A50000346FB607B68DB6D3F229A40FB689A60EF
:104A60007B6800225A657B68012283F83520002389
:104A700018461837BD4680BD3F8010F080B586B01F
:104A800000AFF860B9607A603B600023FB75FB689B
:104A90009B6D3B61FB6893F83430012B01D10223FD
:104AA00040E0FB68012283F83420FB6893F835303E
:104AB000DBB2012B2FD1FB68022283F83520FB6883
:104AC00000225A653B687A68B968F86800F04AFACB
:104AD000FB68DB6D3F229A403B699A60FB681B686C
:104AE0001A68FB681B6842F016021A60FB681B6CB0
:104AF000002B07D0FB681B681A68FB681B6842F034
:104B000008021A60FB681B681A68FB681B6842F0A1
:104B100001021A6005E0FB68002283F834200223BA
:104B2000FB75FB7D18461837BD4680BD80B584B047
:104B300000AF78607B689B6DFB60FEF743FAB8605E
:104B40007B6893F83530DBB2022B08D07B6880227B
:104B50005A657B68002283F83420012352E07B6889
:104B60001B681A687B681B6822F016021A607B6853
:104B70001B685A697B681B6822F080025A617B6857
:104B80001B6C002B03D17B689B6C002B07D07B68D0
:104B90001B681A687B681B6822F008021A607B6831
:104BA0001B681A687B681B6822F001021A6013E018
:104BB000FEF708FA0246BB68D31A052B0CD97B68AE
:104BC00020225A657B68032283F835207B68002207
:104BD00083F83420032315E07B681B681B6803F00F
:104BE0000103002BE4D17B68DB6D3F229A40FB6818
:104BF0009A607B68012283F835207B68002283F865
:104C00003420002318461037BD4680BD80B483B0E1
:104C100000AF78607B6893F83530DBB2022B04D0AC
:104C20007B6880225A6501230CE07B68052283F8AB
:104C300035207B681B681A687B681B6822F00102BC
:104C40001A60002318460C37BD465DF8047B704798
:104C500080B586B000AF78600023BB608E4B1B68C8
:104C60008E4AA2FB03239B0A7B617B689B6D3B61A1
:104C70003B691B68FB607B68DB6D08229A40FB6820
:104C80001340002B1AD07B681B681B6803F00403D9
:104C9000002B13D07B681B681A687B681B6822F0A6
:104CA00004021A607B68DB6D08229A403B699A60B7
:104CB0007B685B6D43F001027B685A657B68DB6D46
:104CC00001229A40FB681340002B12D07B681B68BE
:104CD0005B6903F08003002B0BD07B68DB6D012246
:104CE0009A403B699A607B685B6D43F002027B6887
:104CF0005A657B68DB6D04229A40FB681340002BE9
:104D000012D07B681B681B6803F00203002B0BD0DA
:104D10007B68DB6D04229A403B699A607B685B6D1F
:104D200043F004027B685A657B68DB6D10229A4071
:104D3000FB681340002B43D07B681B681B6803F0A3
:104D40000803002B3CD07B68DB6D10229A403B6946
:104D50009A607B681B681B6803F48023002B18D0C3
:104D60007B681B681B6803F40023002B08D17B6859
:104D70001B6C002B24D07B681B6C786898471FE065
:104D80007B689B6C002B1BD07B689B6C786898477A
:104D900016E07B681B681B6803F48073002B07D147
:104DA0007B681B681A687B681B6822F008021A601F
:104DB0007B681B6C002B03D07B681B6C7868984762
:104DC0007B68DB6D20229A40FB681340002B00F0CB
:104DD0008F807B681B681B6803F01003002B00F0BA
:104DE00087807B68DB6D20229A403B699A607B68F4
:104DF00093F83530DBB2052B36D17B681B681A6817
:104E00007B681B6822F016021A607B681B685A696F
:104E10007B681B6822F080025A617B681B6C002B48
:104E200003D17B689B6C002B07D07B681B681A68DA
:104E30007B681B6822F008021A607B68DB6D3F22EA
:104E40009A403B699A607B68012283F835207B6831
:104E5000002283F834207B681B6D002B7ED07B689A
:104E60001B6D7868984779E07B681B681B6803F4C2
:104E70008023002B1DD07B681B681B6803F4002374
:104E8000002B0DD17B685B6C002B31D07B685B6C99
:104E9000786898472CE000BF0C000020B5814E1BBD
:104EA0007B68DB6B002B23D07B68DB6B78689847D3
:104EB0001EE07B681B681B6803F48073002B0FD116
:104EC0007B681B681A687B681B6822F010021A60F6
:104ED0007B68012283F835207B68002283F8342028
:104EE0007B68DB6B002B03D07B68DB6B78689847B3
:104EF0007B685B6D002B32D07B685B6D03F0010338
:104F0000002B22D07B68052283F835207B681B6844
:104F10001A687B681B6822F001021A60BB680133C3
:104F2000BB607A699A4207D37B681B681B6803F0F1
:104F30000103002BF2D100E000BF7B68012283F85F
:104F400035207B68002283F834207B68DB6C002BE3
:104F500005D07B68DB6C7868984700E000BF1837A5
:104F6000BD4680BD80B485B000AFF860B9607A609E
:104F70003B60FB681B681A68FB681B6822F4802290
:104F80001A60FB681B683A685A60FB689B68402B94
:104F900008D1FB681B687A689A60FB681B68BA686E
:104FA000DA6007E0FB681B68BA689A60FB681B68F8
:104FB0007A68DA6000BF1437BD465DF8047B70473D
:104FC00080B485B000AF78607B681B68DBB2103BB3
:104FD000144AA2FB03231B09FB60134AFB6813441A
:104FE0001B781A467B68DA65FB68032B09D97B6856
:104FF0001B6823F47F7323F003031A1D7B689A65F3
:1050000007E07B681B6823F47F7323F003037A684F
:1050100093657B689B6D18461437BD465DF8047B2D
:10502000704700BFABAAAAAA7888000880B485B0F0
:1050300000AF78600023FB737B689B6ABB607B6872
:105040009B69002B1FD1BB68032B56D801A252F8D5
:1050500023F000BF65500008775000086550000835
:10506000FB5000087B68DB6A03F08073002B46D09E
:105070000123FB7343E07B68DB6AB3F1C07F40D15F
:105080000123FB733DE07B689B69B3F5005F21D191
:10509000BB68032B37D801A252F823F0AD500008AB
:1050A000B3500008AD500008C55000080123FB7341
:1050B00030E07B68DB6A03F08073002B25D001238E
:1050C000FB7322E07B68DB6AB3F1C07F1FD1012351
:1050D000FB731CE0BB68022B03D9BB68032B03D016
:1050E00018E00123FB7315E07B68DB6A03F0807333
:1050F000002B0ED00123FB730BE000BF0AE000BFC2
:1051000008E000BF06E000BF04E000BF02E000BF0F
:1051100000E000BFFB7B18461437BD465DF8047BFA
:10512000704700BF80B489B000AF78603960002359
:105130007B6100233B610023BB610023FB616BE1CA
:105140000122FB6902FA03F37B613B681B687A6901
:1051500013403B613A697B699A4240F05A813B684F
:105160005B6803F00303012B05D03B685B6803F029
:105170000303022B30D17B689B68BB61FB695B003A
:10518000032202FA03F3DB43BA691340BB613B68B5
:10519000DA68FB695B0002FA03F3BA691343BB6187
:1051A0007B68BA699A607B685B68BB610122FB69B6
:1051B00002FA03F3DB43BA691340BB613B685B68E7
:1051C0001B0903F00102FB6902FA03F3BA691343F6
:1051D000BB617B68BA695A603B685B6803F0030394
:1051E000032B17D07B68DB68BB61FB695B00032284
:1051F00002FA03F3DB43BA691340BB613B689A6868
:10520000FB695B0002FA03F3BA691343BB617B6875
:10521000BA69DA603B685B6803F00303022B23D1B1
:10522000FB69DA087B68083253F82230BB61FB69FE
:1052300003F007039B000F2202FA03F3DB43BA6972
:105240001340BB613B681A69FB6903F007039B00CD
:1052500002FA03F3BA691343BB61FB69DA087B689E
:105260000832B96943F822107B681B68BB61FB698F
:105270005B00032202FA03F3DB43BA691340BB610C
:105280003B685B6803F00302FB695B0002FA03F30F
:10529000BA691343BB617B68BA691A603B685B6893
:1052A00003F44033002B00F0B4800023FB60604B1C
:1052B0005B6C5F4A43F4804353645D4B5B6C03F467
:1052C0008043FB60FB685B4AFB699B08023352F832
:1052D0002330BB61FB6903F003039B000F2202FA3A
:1052E00003F3DB43BA691340BB617B68524A9342C4
:1052F0002BD07B68514A934225D07B68504A934219
:105300001FD07B684F4A934219D07B684E4A934224
:1053100013D07B684D4A93420DD07B684C4A934230
:1053200007D07B684B4A934201D107230EE0082344
:105330000CE006230AE0052308E0042306E003232B
:1053400004E0022302E0012300E00023FA6902F0F6
:10535000030292009340BA691343BB613549FB696C
:105360009B080233BA6941F823203B4B9B68BB6121
:105370003B69DB43BA691340BB613B685B6803F47C
:105380008013002B03D0BA693B691343BB61324AD7
:10539000BB699360304BDB68BB613B69DB43BA6937
:1053A0001340BB613B685B6803F40013002B03D020
:1053B000BA693B691343BB61274ABB69D360264B7B
:1053C0005B68BB613B69DB43BA691340BB613B6807
:1053D0005B6803F40033002B03D0BA693B691343C5
:1053E000BB611D4ABB6953601B4B1B68BB613B69BA
:1053F000DB43BA691340BB613B685B6803F48033ED
:10540000002B03D0BA693B691343BB61124ABB69E5
:105410001360FB690133FB61FB690F2B7FF690AED4
:1054200000BF00BF2437BD465DF8047B704700BF56
:1054300000380240003801400000024000040240F1
:1054400000080240000C024000100240001402401C
:1054500000180240001C0240003C014080B487B0AC
:1054600000AF7860396000233B610023FB600023BC
:10547000BB6000237B61CDE001227B6902FA03F36C
:105480003B613A683B691340FB60FA683B699A42AA
:1054900040F0BD80654A7B699B08023352F8233097
:1054A000BB607B6903F003039B000F2202FA03F346
:1054B000BA681340BB607B685D4A93422BD07B681F
:1054C0005C4A934225D07B685B4A93421FD07B683D
:1054D0005A4A934219D07B68594A934213D07B6849
:1054E000584A93420DD07B68574A934207D07B6855
:1054F000564A934201D107230EE008230CE006230D
:105500000AE0052308E0042306E0032304E0022365
:1055100002E0012300E000237A6902F00302920016
:105520009340BA689A4232D1494B1A68FB68DB4310
:10553000474913400B60464B5A68FB68DB434449BC
:1055400013404B60424BDA68FB68DB434049134031
:10555000CB603F4B9A68FB68DB433D4913408B604F
:105560007B6903F003039B000F2202FA03F3BB6085
:105570002E4A7B699B08023352F82310BB68DA433A
:105580002A487B699B080A40023340F823207B6845
:105590001A687B695B00032101FA03F3DB431A40BD
:1055A0007B681A607B69DA087B68083253F822103E
:1055B0007B6903F007039B000F2202FA03F3DB432E
:1055C0007A69D20819407B68083243F822107B6858
:1055D000DA687B695B00032101FA03F3DB431A40BD
:1055E0007B68DA607B685A6801217B6901FA03F302
:1055F000DB431A407B685A607B689A687B695B0072
:10560000032101FA03F3DB431A407B689A607B694C
:1056100001337B617B690F2B7FF62EAF00BF00BF8C
:105620001C37BD465DF8047B704700BF0038014061
:10563000000002400004024000080240000C02404A
:10564000001002400014024000180240001C0240FA
:10565000003C014080B485B000AF78600B467B8091
:105660007B681A697B881340002B02D00123FB73EF
:1056700001E00023FB73FB7B18461437BD465DF841
:10568000047B704780B483B000AF78600B467B80AA
:1056900013467B707B78002B03D07A887B689A61F5
:1056A00003E07B881A047B689A6100BF0C37BD4613
:1056B0005DF8047B7047000080B582B000AF034600
:1056C000FB80084B5A69FB881340002B06D0054A23
:1056D000FB885361FB88184600F006F800BF0837C6
:1056E000BD4680BD003C014080B483B000AF03469E
:1056F000FB8000BF0C37BD465DF8047B704700009F
:1057000080B586B000AF78607B68002B01D10123A3
:1057100067E27B681B6803F00103002B75D0884BA0
:105720009B6803F00C03042B0CD0854B9B6803F0A3
:105730000C03082B12D1824B5B6803F48003B3F592
:10574000800F0BD17E4B1B6803F40033002B5BD022
:105750007B685B68002B57D1012342E27B685B6862
:10576000B3F5803F06D1764B1B68754A43F480330E
:1057700013601DE07B685B68B3F5A02F0CD1704B04
:105780001B686F4A43F4802313606D4B1B686C4A9F
:1057900043F4803313600BE0694B1B68684A23F4C1
:1057A00080331360664B1B68654A23F480231360C3
:1057B0007B685B68002B13D0FDF704FC386108E0C0
:1057C000FDF700FC02463B69D31A642B01D9032381
:1057D00007E25B4B1B6803F40033002BF0D014E0AE
:1057E000FDF7F0FB386108E0FDF7ECFB02463B6992
:1057F000D31A642B01D90323F3E1514B1B6803F443
:105800000033002BF0D100E000BF7B681B6803F081
:105810000203002B63D04A4B9B6803F00C03002B60
:105820000BD0474B9B6803F00C03082B1CD1444B57
:105830005B6803F48003002B16D1414B1B6803F017
:105840000203002B05D07B68DB68012B01D001230C
:10585000C7E13B4B1B6823F0F8027B681B69DB0048
:10586000374913430B603AE07B68DB68002B20D09C
:10587000344B01221A60FDF7A5FB386108E0FDF703
:10588000A1FB02463B69D31A022B01D90323A8E1ED
:105890002B4B1B6803F00203002BF0D0284B1B6836
:1058A00023F0F8027B681B69DB00254913430B607A
:1058B00015E0244B00221A60FDF784FB386108E0F4
:1058C000FDF780FB02463B69D31A022B01D9032363
:1058D00087E11B4B1B6803F00203002BF0D17B68B0
:1058E0001B6803F00803002B36D07B685B69002B34
:1058F00016D0154B01221A60FDF764FB386108E0F1
:10590000FDF760FB02463B69D31A022B01D9032342
:1059100067E10B4B5B6F03F00203002BF0D01BE041
:10592000094B00221A60FDF74DFB38610EE0FDF7D0
:1059300049FB02463B69D31A022B07D9032350E1E6
:105940000038024000004742800E4742884B5B6FA0
:1059500003F00203002BEAD17B681B6803F0040309
:10596000002B00F097800023FB75814B1B6C03F02C
:105970008053002B0FD10023BB607D4B1B6C7C4AF6
:1059800043F0805313647A4B1B6C03F08053BB606D
:10599000BB680123FB75774B1B6803F48073002BF6
:1059A00018D1744B1B68734A43F480731360FDF77E
:1059B00009FB386108E0FDF705FB02463B69D31A95
:1059C000022B01D903230CE16A4B1B6803F480739B
:1059D000002BF0D07B689B68012B06D1644B1B6FBA
:1059E000634A43F0010313671CE07B689B68052B47
:1059F0000CD15F4B1B6F5E4A43F0040313675C4B93
:105A00001B6F5B4A43F0010313670BE0584B1B6F9E
:105A1000574A23F001031367554B1B6F544A23F079
:105A2000040313677B689B68002B15D0FDF7CAFA47
:105A300038610AE0FDF7C6FA02463B69D31A41F223
:105A40008832934201D90323CBE0494B1B6F03F00B
:105A50000203002BEED014E0FDF7B4FA38610AE03F
:105A6000FDF7B0FA02463B69D31A41F288329342FD
:105A700001D90323B5E03E4B1B6F03F00203002B5B
:105A8000EED1FB7D012B05D1394B1B6C384A23F03D
:105A9000805313647B689B69002B00F0A180344B1A
:105AA0009B6803F00C03082B5CD07B689B69022B7E
:105AB00041D1314B00221A60FDF784FA386108E0C9
:105AC000FDF780FA02463B69D31A022B01D9032362
:105AD00087E0274B1B6803F00073002BF0D17B6835
